:040000006F00500934
:100004000000000000000000480200004C02000054
:100014000000000092080000000000000000000042
:100024009208000092080000000000000000000098
:100034009208000000000000920800000000000088
:100044009208000092080000920800009208000044
:100054009208000092080000920800009208000034
:100064009208000092080000920800009208000024
:100074009208000092080000920800009208000014
:100084009208000092080000920800009208000004
:1000940092080000920800009208000092080000F4
:1000A40092080000920800009208000092080000E4
:1000B400A6020000920800009208000092080000C6
:1000C40092080000920800009208000092080000C4
:1000D40092080000920800009208000092080000B4
:1000E40092080000920800009208000092080000A4
:1000F400920800009E02000092080000920800008E
:100104009208000092080000920800009208000083
:1001140092080000920800000000000000000000A7
:1001240000000000000000000000000000000000CB
:0C013400000000000000000000000000BF
:10014000397101436EC619A0397141536AC866CA34
:1001500062CC5ECE19A0397101535AD056D252D416
:100160004ED64AD826DA22DC06DE3301614082828E
:1001700041114AC026C222C406C68282B24D410144
:10018000024D924C224CB24B4101024B924A224A00
:10019000B2494101024992442244B2404101828065
:1001A0003D432A876373C3029377F700BDEFADE544
:1001B000937606FF3D8ABA960CC34CC30CC74CC756
:1001C0004107E36BD7FE11E28280B306C3408A0683
:1001D0009702000096966780A6002307B700A30643
:1001E000B7002306B700A305B7002305B700A30493
:1001F000B7002304B700A303B7002303B700A3028B
:10020000B7002302B700A301B7002301B700A30082
:10021000B7002300B700828093F5F50F9396850011
:10022000D58D93960501D58D61B7939627009702DA
:10023000000096968682E78086FA9680C1171D8F09
:100240003E96E374C3F8A5B77300203037950000DD
:10025000130505BBEF70C07CEF10A030AA85379561
:100260000000130545BCEF70C067EF10E02FAA85B2
:1002700037950000130545BDEF70A066EF10002E06
:10028000AA8537950000130545BEEF708065B70756
:10029000EFBE37E700E0938707083CC701A0EF10E7
:1002A0006000730020302945EF0050348545370544
:1002B0000040EF00D01D7300203019C9EFF25FEB52
:1002C000AA85379500001305C5C8EF708061D9B5C0
:1002D0008280EFF2FFE941118545054502C202C463
:1002E00023160100EF00F00D83A7418137470F006F
:1002F00013070724B3D7E7024C0037050040231546
:1003000001007C8489679387F7703EC2EF00F00E8E
:100310000546854537050040EF00501685453705F1
:100320000040EF003014854537050040EF003016DF
:10033000B7E700E0056723A2E7104101A1BDEFF296
:100340003FE339711306C00381454800913DB7076B
:10035000002083A70707138421873ED883D7018114
:100360004C00138521873ED4938721819A239306DD
:10037000170096A389473ED01C209306005C3AD60E
:100380003387D7029387C19436C8BA973EC6EF1019
:1003900070240C20AA8437950000130505BFEF7068
:1003A00040542685193F2161F5B3EFF27FDCB74455
:1003B000004041119305000213850440EF003019FD
:1003C0001384818705C513850440EF00D0179386F9
:1003D000C1879E221387C1F03E9708A32320040003
:1003E0001307F07F6364F70085079EA21C404167F6
:1003F0001307C7FD85071CC06379F7021384C18703
:100400001E2085C783A7818674003EC603D701815D
:1004100003C521871386C1879385C1F0EF10B04BC8
:100420002945EF10C009231004004101A5B3EFF2E4
:100430003FD40111AA848545114502C202C402C6F7
:1004400002C802CA02CC02CEEF00C075854537054E
:100450000200EF00007791477C8237140140854706
:100460003EC44C00E147130504803EC6492BA1471A
:100470007C824C009147130504803EC637440040FF
:10048000BD2BB7070C000C08130504403ECC26C852
:1004900002CA231E0100EF005000854513050440E9
:1004A000EF0090080561FDB1EFF29FCC37440040AA
:1004B000AA8513050440EF00900813040440930537
:1004C00000082285EF00B0087DD9E9B1EFF2BFC87E
:1004D0001307C0033307E502B7470020938787134C
:1004E0004111AA84BA97D44798473697D44B9C4F6A
:1004F0003386F6006374C700B307D7401309005C66
:100500003389240337950000130585C03EC6014496
:10051000EF70203D9389C194B2476369F400700085
:1005200081452685EF10D02C410185B1B307240108
:10053000CE97882305048D3FC5B7EFF27FC393F7AD
:1005400045002E8485C35937938731879823854585
:10055000371501401347170098A39C2393F7F70F13
:1005600095CFB12B9377840099C737950000130579
:1005700045C5EF70E04A9377040199C737950000AD
:100580001305C5C6EF70C0491374040419C4379528
:1005900000001305C5C7EF70A048EDBE1D23D9B7F5
:1005A000EFF21FBD4111AA842EC6130480087330D8
:1005B0000480CD2E0545EF00907037050108130526
:1005C00005F039210545EF00906FB245268561267B
:1005D0000545EF00D06EF5267320048041015DBE15
:1005E000EFF21FB9EF10304E937715002A8499C7A8
:1005F00037950000130545C1EF70804293772400C2
:100600008DCB37950000130585C2EF70604193874D
:1006100041878C23370501084115850593F5F50FB2
:100620008CA3BD3FB707EFBE37E700E0938707080D
:100630003CC79377440099CBEF10B04C118919C592
:1006400037950000130505C4EF70803D418811E027
:1006500091B60145EF105048AA857DD90145F13D7D
:10066000C5BFEFF2FFB0B707010803A707FF138567
:1006700007FF1377F70F238AE1869306900313840D
:100680004187631AD7008545213F37950000130540
:1006900005D3EF700025B707010883A707FF93F77D
:1006A000F70F138781809386C1861386C180938557
:1006B0004180138581801CA03CB3EF0070522A84D6
:1006C000ED3E19E437950000130505D4EF70403571
:1006D000BD31C9B4EFF23FA8EF00B0587165130502
:1006E0000520B133379500001305C5C9EF704033BD
:1006F00083A54181B7879303938707706388F500CB
:10070000B7172707938707E06392F508379500002E
:100710001305C5CAEF70E01CEF10A065AA853795D8
:100720000000130505D0EF70C01BEF108064E9478F
:100730006308F50037950000130505D1EF70402ED2
:100740001385C186612537950000130505D2EF702A
:10075000401901449384C186B79900001949B387B1
:1007600084008C231385C9D20504EF708017E31829
:1007700024FF2945EF70E01AA93EE5353D31EF0031
:10078000500FEF1070307DD9A13DCDBF37950000DF
:100790001305C5CBEF70C02841B7B7170240984387
:1007A000B706FFF041111367170098C3D843370607
:1007B0000200758FD8C39843B706F7FEFD16758FF4
:1007C00098C39843B706FCFFFD16758F98C3D843AE
:1007D000B70601FFFD16758FD8C337079F0098C76E
:1007E00002C402C69843C166558F98C3B71602402B
:1007F00005679C42F18F3EC6A24785073EC4B247BB
:1008000081E7A247E397E7FEB71702409C4313979F
:10081000E700635E070685473EC632478547631695
:10082000F706B7170240D843B706C000558FD8C3A4
:10083000D843B706C1FFFD1613670708D8C3D843CE
:10084000D8C3D84313670740D8C3D843758FD8C3DC
:10085000D843B7063500558FD8C39843B706000173
:10086000558F98C3984393166700E3DD06FED8437F
:10087000B7160240719BD8C3D84313672700D8C36B
:100880002147DC42B18BE39EE7FE4101828002C634
:1008900069B701A0970100209381C1FD17F10020E5
:1008A00013014176178500001305055D97F5FF1FBD
:1008B000938545751386C18663FAC50083220500BA
:1008C00023A0550011059105E3EAC5FE1385C186F5
:1008D00097450020938585A06377B5002320050008
:1008E0001105E36DB5FEFD42739002BC8D4273901D
:1008F0004280930280087390023097F2FFFF938248
:10090000A27093E2320073905230EFF01FE9970229
:100910000000938262DC739012347300203037271A
:1009200002405C470545858B91E74847418913356F
:1009300015000D058280EFF2BF832A848544C537F8
:100940006318950019E0154529A0D13F7D14CDBF4E
:100950007DD86FF03F84EFF21F8041112A89156521
:10096000AE8402C69149C13F631B35033724024060
:100970001C48156593E717001CC893970401C183B1
:100980002310F9004D3F6319350109094AC6B247E2
:10099000C180156586A345371C48F99B1CC84101D9
:1009A0006FF0AFFEB7066745B72702409386361251
:1009B0003797EFCDD4C31307B79AD8C3D4D3D8D3BE
:1009C0008280372702401C4BA166D58F1CCB8280CA
:1009D000B7270240984BB7060200137505F0558FF4
:1009E00098CBC8CB984B1367070498CBD847058B97
:1009F00075FF984B8176FD16758F98CB82809C454C
:100A000013F7070113F8F70001C7D8413368E8006E
:100A10008E2113F7F50F39C318418146854E3D4F9E
:100A2000930F800293028004214E3396DE00B3F8C8
:100A3000C500631116039398260033131F01134357
:100A4000F3FF3377E300B318180133E7E800639F3F
:100A5000F70550C98506E39AC6FD18C11307F00FC4
:100A60006375B70454412146854E3D4F930F800274
:100A700093028004414EB398CE0033F71501639280
:100A8000E8021317260001173313EF001343F3FF97
:100A9000B376D3003317E800D98E639DF701232A7C
:100AA00015010506E319C6FD54C18280E39457FA87
:100AB00010C94DB7E39757FE23281501DDB70CC9C0
:100AC00082804CC98280371702405C439146B18BCB
:100AD0006385D706A1466387D706B7177A00938741
:100AE00007201CC1371602405C423707002013075D
:100AF00007009183BD8BBA9794231C41B3D7D700CD
:100B00005CC15442A1829D8ABA969422B3D6D70082
:100B100014C55442AD829D8A36971823B3D7E70097
:100B20005CC55842398393763700138781813697A5
:100B30001823B3D7E7021CC98280B757E80193870F
:100B4000078045B75C435843C166C983BD8B758F29
:100B50008907C5466393D700C94701EF374702406D
:100B600003270780418B15CB37177A00130707201F
:100B700029A8B7160240D8423706C000718F631902
:100B8000C7003727F40013070740B387E70291BF78
:100B9000D8429316E700E3D906FC37173D00130748
:100BA0000790E5B799C5371702401C4F5D8D08CFF8
:100BB0008280B7170240984F1345F5FF798D88CF93
:100BC000828099C5371702405C4F5D8D48CF828087
:100BD000B7170240D84F1345F5FF798DC8CF8280F3
:100BE000B7170240D843B70600F0FD16758FD8C37B
:100BF000D8437205598DC8C382801E213737014002
:100C0000130707C0C207C1836304E502370700402A
:100C10006300E50213070740630CE5003717004047
:100C2000930607806306D500130707C06316E50027
:100C3000BA2193F7F7F8D98FFA2193F7F7CFC207C4
:100C4000C183D98F1EA1DE215EB59E211EB5B737A7
:100C50000140938707C06314F5009C251EB98547A2
:100C60005EA982801E2189C593E717001EA182809C
:100C7000C207C183F99BC207C183CDBF5E2501C6F0
:100C8000DD8D4EA5828093C5F5FFFD8DDDBF93C53B
:100C9000F5FFC205C1810EA98280EFF26FCD162942
:100CA000F577FD17F58FF621DA257971D58F1EA915
:100CB0005625FD779387379FF58FD6212A842EC638
:100CC000D58F9625D58FB625D58F5EA55E29C2070F
:100CD000C18393F7F7CFD98F5EA96808ED33B74783
:100CE000014093870780B245631EF402A25765470F
:100CF000B387E7029841930640060A07B3D7E70295
:100D000033D7D702B3F7D702120792079387270387
:100D1000B3D7D702BD8BD98FC207C1831EA445614B
:100D20006FF04FC79257E1B791C55E250967D98F1C
:100D30005EA582805A25F977FD17F98FD5BF93F507
:100D4000F51F4EA182804A211375F51F82800A216A
:100D50006D8D3335A000828093874188984314437A
:100D600063C60602144337060080C205D18E14C341
:100D7000378702402AA7C1810EA77433054593E641
:100D8000860074B39843584798C382800145828097
:100D9000EFF20FBE854789456317F500371501400F
:100DA000393B6FF02FBF37150140213BDDBFEFF21C
:100DB0002FBC854785456317F50037150140013382
:100DC0006FF04FBD37150140ED39DDBF37F7FF1F1D
:100DD00081471307D77E99463306F7400C22330626
:100DE000F50085070CA2E399D7FE8280938781885E
:100DF00098433A9588C38280EFF28FB737840240D8
:100E000095472302F402854716302302F4021A3074
:100E1000FD8A4207418393876189DDCE942313962F
:100E200086016186634A06041387C1811023937586
:100E3000C60091E9A38F0188238A0188130700F86F
:100E400098A36FF02FB593F52600EDF593E62600F5
:100E50006D9A10A3A38E018894A3230204021E306E
:100E600093E70720C20793E707105CD01C23C20753
:100E700093E7E7115CD0F1B79386F189902293054F
:100E800016008CA29545E31EB6FA1377070255FBB0
:100E9000A38E018823800600238E0188238007000B
:100EA000230204021E3093E70720C20793E70710CE
:100EB0005CD083C6C1811387C18113F6C60093F746
:100EC000B60F19E293E746001CA3C20793E7E711A8
:100ED000378702405CD3B5B71377070221FF982309
:100EE000930600086314D702138741891423294607
:100EF0006385C600850614A3A9B723000700A38E47
:100F00000188238E01882380070025BF05EF938782
:100F1000C189942329461387160098A31387C1819A
:100F2000639EC60023800700F9472302F4021E30A7
:100F300093F7370F93C737001CA315BF142313F67D
:100F4000C600B5BF8946E31ED7EE9384C1819820C1
:100F50009376C7008DE21367470098A0230204022E
:100F60001E30294593E70720C20793E707105CD09E
:100F7000212B9C20EDBD1387D18914233D46E39B93
:100F8000C6F623000700B5BF03A7818823ACE1881C
:100F900003C6E18709479386E187637AC702B7876B
:100FA000024079472382E7029A334207418313566E
:100FB0002700058A9367470019C2937737FFC20756
:100FC00093E7E711378702405CD3238006008280D5
:100FD0009387518998231377F70F21CB03A7818833
:100FE00083A68189158F9306301F63F3E60823805B
:100FF0000700374702408327078093E747002320F5
:10100000F780B707008093870710378702405CD3CB
:10101000A38F0188238F0188238A0188A38E0188EA
:10102000238E0188238B01888280EFF26F9483C71F
:10103000E1898DE3138781889387818914439043E5
:10104000918E130610036375D600184398C36D3351
:101050006FF04F9483C7C188E5DF83A7818803A71A
:101060008189998F13073006E374F7FE313FCDB7BE
:101070008280EFF2EF8FEF00006BD529913F6FF088
:101080006F91EFF2EF8E41118545414502C202C4D6
:1010900002C6EFF03FB18D477C82C1473EC64C008F
:1010A0008D47371501403EC4EFF07F9589453715D0
:1010B0000140EFF0DFA0854537150140EFF03FA07C
:1010C00041016FF02F8D23A0A188B70800808147D0
:1010D00013030060130EF6FF63E3C70082803388BA
:1010E000670213974700B306E50023A016012E9868
:1010F00023A406012A8863F5C70141073308E500E8
:10110000850723A6060193F7F70FF9B783A7018890
:101110009A27B7870240DAA7F83313674700F8B376
:101120008280EFF2EF840545EFF09FAB6FF08F8682
:10113000EFF20F8441112AC6ED37B7870240A38131
:101140000700B8331367B70DB8B3B8331367470058
:10115000B8B37D57D8A3D8331367070CD8B3F83387
:101160001367070CF8B3F8331377F703F8B3238C3E
:101170000700324558312384E7025821A384E7024F
:1011800038312385E7023821A385E7021831238609
:10119000E7021821A386E702983F1367170098BF5C
:1011A000B82F7D8BB8AFB82F13670702B8AFB82F31
:1011B00013670701B8AFB82F1377B70FB8AFB82FC1
:1011C00013671700B8AF13070060FAAFF82313775F
:1011D000170FF8A3F8231367A700F8A337470240B7
:1011E0008327078093E747002320F78041016FE0C2
:1011F0007FFAEFE2FFF79123378702401C2F93E736
:1012000007021CAF238F018605472386E18803A7C9
:10121000818823ACE1881147238FE188C53D6FE0C9
:101220007FF7EFE2FFF4112B374702408327078057
:10123000ED9B2320F7800547A38AE18803A78188D7
:1012400023ACE1886FE01FF5EFE29FF2B787024021
:1012500005472382E7028A3315472382E7024205C6
:1012600041819A339376450085CE9376050281C6F7
:1012700049376FE03FF2420741831DE337070080A3
:1012800013070710D8D3A38F0188238F0188238ADF
:101290000188A38E0188238E0188238B0188D1BF0A
:1012A0004937C1BFEFE2DFECB7860240C0221374BA
:1012B000F40F93770404B5CB93070004DCA21386E4
:1012C00001881C42984363560704D8321377870776
:1012D0004DEFCC479841635E0702984361757D15D9
:1012E0000607058398C39843698F98C398433705C9
:1012F00001C07D151367073098C39843698F98C361
:10130000FA26884311074207498F98C39E250CC2CD
:10131000DEA69387C188982309CB238007003787EF
:1013200002401C2F93F7F70D1CAF9377840099CBE5
:1013300003A741881C43860785831CC3B7870240E7
:101340002147D8A39377040191C7FD3DB787024099
:101350004147D8A39377240099CB03A741881C4326
:10136000860785831CC3B78702400947D8A3058831
:1013700009CC83C7C18891C79387E1879823050764
:1013800098A3B78702400547D8A36FE0BFE0EFE21C
:101390003FDE2A84FD311305400615222285493B94
:1013A0009387C13423A2F188372700201307C73C55
:1013B000B71500201384C13098C723A00700DCC7ED
:1013C00011469385C5BC1385C130F53923A88188A2
:1013D00037070020B7E700E023A2E7106FE09FDBAC
:1013E000EFE21FD93971930700603ECA9307405B53
:1013F0003ECC930700673ECE930720033ED0930771
:1014000030103ED2B727554085073ED4B7170000AD
:101410009387E7DA3ED6B7170000938707D93ED8FF
:10142000B7170000938787D53EDAB75734129387F2
:1014300087672A8948082EC632C4B68402DC3EDE9D
:10144000EF0030002A8411E92246B245A6864A857B
:10145000EF0080742A8426851D3F228521616FE07C
:101460007FD383A7418137177A0013070720B3D7AB
:10147000E70293F7F70F2381F18A1307803EB387C2
:10148000E7022390F18A8280B7F700E0D8438146D3
:10149000799BD8C303C7218A3306A70290CBD4CB4C
:1014A00098431367070198C398431367170298C3BB
:1014B000D843058B75DF9843799B98C38280B7F733
:1014C00000E0D8438146799BD8C303D7018A33060D
:1014D000A70290CBD4CB98431367070198C39843D6
:1014E0001367170298C3D843058B75DF9843799B20
:1014F00098C38280EFE23FC6B7440140AE8932898B
:10150000014493840480634524014A856FE0FFC74A
:10151000930500042685EFF09F837DD9B38789006A
:101520008385070026850504C205C181EFF03F8150
:10153000D9BF138701821C43B74600209386862DAE
:101540003E95636BD500B70601209386068063E560
:10155000A60008C33E858280FD57EDBF7325103479
:101560008280732520348280732530348280EFE2BC
:101570003FC083A7818841113EC6EF009058118972
:10158000630005149387C18B9843B246998E374701
:1015900000200327472105836376D700324798C38D
:1015A000EF30405AEF30B00583A7C18C91C7EF30C0
:1015B000805B19E123A6018C9384818B9840B2470C
:1015C000998F1307703E6376F700EF10903CB24797
:1015D0009CC09387418A9843B246998E056713074A
:1015E00077386376D700324798C3EF007078B747F3
:1015F00000209387871DD84711CF1387418B104355
:10160000B246918E1306703E6376D600B246DC4336
:1016100014C38297B744002083A70418A9CB13876B
:10162000018B1C43B2461306A00F9D8EB7470020C6
:1016300083A70725ED83B387C70263E9F600B247A6
:101640001CC3938704189C4B91C382979387C18ACC
:101650009843B246998E3D671307F7A56379D70083
:1016600032479384041898C3DC4891C3829732456B
:101670009384818A752C9C4032471D8FBD67938768
:10168000F7A563F5E7008D2CB2479CC003C7918C8A
:10169000BE841377F70F0DC703C7918C1377070C20
:1016A0001DE3B747002083A7872599C30545829787
:1016B00003A7818823A2E18C93070004A384F18C03
:1016C00041016FE03FAD03C7918C1377070415CB41
:1016D00083A6418C03A781881389418C158F9306BB
:1016E0004006E3FFE6FCB747002083A7872599C3A0
:1016F0000145829783A781882320F900930700F88A
:1017000075BF03C7918C62076187E35B07FA83A605
:10171000418C03A78188158F93064006E3F2E6FA11
:10172000A384018C71BFEFE2BFA4374500201305ED
:101730008526EF10E0466FE0FFA5EFE27FA3B747F5
:1017400000209387871FD8573744002088D313671A
:101750004700D8D711899307C4239C4F1304C4238F
:1017600001CD99C3014582975C4C99C3014582978D
:101770000545A5226FE01FA299C3054582975C4CE1
:10178000F5DB05458297FDB783A701892320050076
:101790009DCB944363DB0600D44790426345060229
:1017A0009C4363D4070023A8D18883A7018991654E
:1017B0000146FD153548B7080080944363D70600FD
:1017C00019C223A8F188014582809443139306012E
:1017D00063420304944393F606108DCE944393F62C
:1017E00006208DCA9443C182ED8EF11614C1637137
:1017F000D802944393F6060281EA19C223A8F1881D
:101800009C475CC105458280944393F61608F5D643
:101810002320050023A017010546DC4779BF03A755
:101820000189B706008014C3584723A8E188828045
:10183000EFE21F9483C7918C93F7F70F81E78547F9
:10184000A384F18C03A781889387018C09CB98C36B
:10185000B747002083A7C72582976FE0BF9305474E
:10186000FDB7B7F7FF1F03D567701375050F8280AB
:10187000EFE21F90B747002083A7C7250149B1C7F2
:1018800083A44188B9C09C4003A984001384018CBF
:1018900063DB0702F9371440814713060008130879
:1018A0003006A168130300036304C50063126502D8
:1018B00003A78188158F6364E80063FBF8009C40F0
:1018C000860785839CC0232004004A856FE09F8C97
:1018D0009840E35A07FE8507C1BF03A78188B74731
:1018E00000209387471788A32391070023920700BE
:1018F00098C7A38007008280EFE29F87B74400204B
:10190000138484265C4041116C00138584263EC6F6
:1019100023220400EF00D066B2476C0013858426B2
:101920005CC05C443EC6EF00B06541016FE09F863D
:10193000B747002093874717982319E388C7828009
:1019400098479306703E3307E54063F1E602EFE205
:101950003F82BA2388C7914663F6E6000145B53F4A
:101960006FE05F830507BAA3413FDDBF8280EFE2EE
:101970003F802A8401459537B74700209387471752
:1019800011C8054798B3B7470020094723A2E722AB
:101990006FE05F80A3800700E5BF8280EFE2CFFAAF
:1019A0005C42032A85000329C5000049AA848823D4
:1019B0009C33B289A2075D8DEF10C02D9355650051
:1019C00093F5C503B305B0404E85EF20606349E54C
:1019D000DC44984C03DB8900998F63F867014E85DE
:1019E000EF20E06805456FE0AFF94A9A4E8903564B
:1019F000A900B30A8A40832B490063F4CA045686BF
:101A0000DE852285EF50D0628357A90098443304C5
:101A100044413E942286B3855B013A85EF50506184
:101A20002A9403290900E31409FC4E85EF20206461
:101A30009C4C80C8DA979CCC9C4093E747009CC0A4
:101A400055B72285DE85EF50B05E8357A9003E94DE
:101A5000E39957FD8044F1B7014571B771CAEFE2D0
:101A6000AFEE832BC5001C4D035B8600BA8AB3879B
:101A7000FB40368A32892A8463F767013285EF207A
:101A8000005F6FE0EFEF1C450449B289BE9B03D6AF
:101A9000A900338C9B4083AC49006377CC066286F7
:101AA000E6852685EF50D05883D7A9001844B38423
:101AB0007441BE942686B3858C013A85EF50505709
:101AC000AA9483A90900E39409FC4A85EF20205ACF
:101AD000032884036305080483451A0083470A002A
:101AE0001448A205DD8D83472A005A875686C2070F
:101AF000CD8F83453A002285E205DD8D02981C4496
:101B0000232C04001CC8B5BF2685E685EF50505233
:101B100083D7A900BE94E39687FB04445DB7184CB5
:101B20001C4004C85A9793E7470018CC1CC091BFCB
:101B3000828019C93305A040A567938787D713759D
:101B4000F50F3E950821828001458280EFE24FE249
:101B50009307C003B387F5023744002013078413AB
:101B60002A89AE841306C003814513048413BA97EF
:101B70003E85EFE0EFE2630709001306C003CA8564
:101B8000EF50104B9305C003B385B402A2959C455A
:101B90009CC9DCC96FE00FE0EFE2EFDB2A8A374532
:101BA00000204111AE89B2848145614613050518B4
:101BB00036C6EFE0EFDEB246374400201309841F3B
:101BC000B68519461305C900EF5090461146D285D7
:101BD0001305841FEF50D0451146CE8513054900EB
:101BE000EF5010451304841FA1E0B7070001FD1753
:101BF0001CC4814483C7818C63CFF402EF10400181
:101C000085475CD01567B74700209387C71E130729
:101C100007E298C31167130787A9D8C3254798C758
:101C2000014541016FE06FD61146A685130584007A
:101C3000EF5010407DBF93F5F40F0145013F85043F
:101C400055BF1855B7573412938787676310F7123B
:101C5000EFE26FD01C512A84254563810710374974
:101C600000201306400481451305891FEFE04FD380
:101C7000B74400201306C00281451385C423EFE05A
:101C80002FD21306C002A2851385C423EF50503A09
:101C90009389C42303A749014A869387C42325EB6C
:101CA000A56603D786D5938686D5AE222E97CE22FB
:101CB000F6222E9736979316270163D3060AD8CBC0
:101CC000D84B9356E700FD8A89EAB746F8FFFD1620
:101CD000758FB7060500558FD8CBD84B9356370173
:101CE000FD8A89EAB746F8FFFD16758FB7065000E2
:101CF000558FD8CBD84B9316670063CA0600B7063A
:101D000000FEFD16758FB7060014558FD8CBD84B43
:101D10009356B70189E6B7060040558FD8CBD85304
:101D200011E73717000013078778D8D3D44B014544
:101D300013D7E6007D8B2384D18C9307861F98CF21
:101D400013D736017D8B130620033307C702D8CF84
:101D500013976600635407000947B8C36FE0EFC2EA
:101D6000F976FD16758F8966558F91BF1305F00FB3
:101D700082806945828003C6818CB74700209386A4
:101D800087130147938787136317E600814763131F
:101D9000F7020145828003A807036317A80009C55D
:101DA0000545EDD998A1828005071377F70F938732
:101DB000C703D9BFD05A6319A60019C50545F9D97B
:101DC00093E707F89CA18280850793F7F70F938626
:101DD000C60375BFEFE22FB8374900202300050086
:101DE00003C7818C41119307891381441309891317
:101DF000631797001305000241016FE00FB9938745
:101E0000C70383A647FE63810618850493F4F40F85
:101E1000C5B7B747002083A7871F6C003EC6EF20D9
:101E2000605811469305C4026800EF5070206C00A2
:101E30004E85EF2000591306C0033386C402B72530
:101E400000009385C5994E854A96EF2060599547C5
:101E5000374500206C00232834031CD01305852649
:101E6000EF001012A6852285EFF05FCE014569B71D
:101E700009476390E70AEF50404AAA8963030512B5
:101E8000930AC4021146D6856800EF50701A324A90
:101E9000370500F0EF003063337AAA00370500E021
:101EA000EF0070626300AA04B74500209385852681
:101EB0006800EF1060291DE5B747002083A7871F42
:101EC00012346C004E853EC6EF5000231DE1D685CE
:101ED00011466800EF50D01552306C004E85EF501F
:101EE000803B39A01234938501854E85EF50C02088
:101EF00001C5EFF01FC409B71306C0033386C4023F
:101F0000B72500009385C5A54E854A96EF508040C1
:101F10003DBF0D4713051002E390E7EEEF20506A36
:101F20005C4412346C005EB9B747002083A7871F5A
:101F3000AA893EC6EF20E0532A8A11C54E85EF20BC
:101F4000302C52857DB79305C003B385B4024E850E
:101F5000CA95EF20A072B72500004E859385A599FC
:101F6000EF2000729547A685228523283403232A73
:101F700034031CD0EFF09FBD374500206C001305E3
:101F80008526EF00E07FDDB504A1DC4DC4C12E84C1
:101F9000E39007EE03458402EF20E044AA89E31AA8
:101FA00005E6454591BDEFE2AF9C4EB52A84EF2092
:101FB000A05D09CD83476402228593E727002303B0
:101FC000F402EF40B00405456FE0CF9CB747002016
:101FD00083A7C724A183858BFDD783476402858BA4
:101FE000FDD38947A303F402054723A6E18CE1BF93
:101FF000EFE26F9614426944C5CE23200600328A70
:102000001306C0033306C502B744002013878413A8
:10201000AA89AE87938484133297032B8700504795
:1020200003298701404B329B63F326013689B30AAB
:102030008B4063F22A0981CB3E855686A285EF50FC
:10204000207FB30755011307C0033387E9024A9481
:10205000330464412697832A870091C72286D68558
:102060003E85EF50E07C56949307C003B387F90296
:1020700023202A01A697984FC0CB3309274123ACD0
:102080002701631809009847D8CB98CB98436D9BDC
:1020900098C39307C003B389F9028D470144CE94D6
:1020A000D84C6317F70063150900CE248858E53D26
:1020B00022856FE08F8D91C74A86A2853E85EF50BD
:1020C00020774A94E3922AFB9307C003B387F9026F
:1020D000A697804751BFEFE2AF860042232006005B
:1020E00055C8AA876945D9C91305C003B387A70294
:1020F0003745002013058513374A00208144AA97ED
:1021000003AB070393078A1FBC43130A8A1F898BFB
:1021100099E39304700C9307005C63F48700130445
:10212000005C931D0401BA8C368CB289AE8B93DDB2
:102130000D01130D800C0146EE850145EF1010785E
:102140002A8939C948412286DE85232E0A02EF50AA
:10215000206EE6866286CA855A85EF50E010AA8A0C
:102160004A85EF10D0708327CA0399CB8504C20437
:10217000C180EFF04FDBE390A4FD4D456FE00F8091
:1021800063D60A005685EFF0DF9ACDBF23A0890001
:102190000145EDB76945DDB74545CDB7EFD25FFDE8
:1021A000A147AA840021638AF50263ECB700854742
:1021B0006381F502894713642400638EF5006FD0B4
:1021C0007FFDC147638EF500930700041364040488
:1021D000EDB71364140080C0DDB713648400E5BF5D
:1021E00048591364040165D9EF209001EDB7EFD28F
:1021F0003FF841119305F1002A89A3070100EFF090
:102200009FB715C5808793178401E18763D40702C0
:102210001374F4071307C0033304E402B747002024
:10222000938787133E94232A04022320040241014A
:102230006FD05FF683C7818CE37BF4FE1307C00386
:102240003307E402B747002013858713938487136D
:102250003A95544D0D47E39CE6FC83270901054759
:10226000DD1793F7F70F636CF700C145053F930740
:10227000C0033304F4022694232804027DB71C21F2
:1022800093E707041CC1E5B73747002083C6818C5C
:10229000130787138147638FF6001307C7030326CD
:1022A00047FC11CEB74700209387871FD857136785
:1022B0000701D8D7B747002003C54722828085078A
:1022C00093F7F70FC9BFEFD2BFEA7D3FB7470020B2
:1022D00023A207226FD01FEC83C7818C6371F502A4
:1022E0009307C0033305F502B74700209387871390
:1022F000AA9798431375F70F118B98C382800145F5
:102300008280B747002003C587218280B74700201D
:1023100003A50725358105898280B747002093876B
:10232000871F05474111C8CB94DBD0DB8CDFD8D7A2
:1023300041018280B7470020054723AAE722828017
:10234000EFD21FE3B747002003A6872483A681822C
:10235000131786016187630B051483C7018D6148DC
:1023600089483388070336980323C8006310131580
:102370000343150083480500032808002203336344
:10238000130183482500C20833E368008348350001
:10239000E208B3E86800639B0811E207E1873E8525
:1023A0006FD05FDFB3885702B69803AEC8006319D9
:1023B000060763170E06139887011358884185078F
:1023C00093F7F70FE3E0C7FE6317060193F81500D4
:1023D000FD57E38608FC8989FD57F1F19377F80FE3
:1023E000636BC8009377F30F6367C300FD57E3780F
:1023F000C7FA9377F70F61473387E702BA9623A6A8
:10240000060001CD103118212206598E38214207CD
:10241000598E38316207518F98C2238806000DA863
:1024200063147E040DC9834E1500034E0500A20EF1
:10243000B3EECE01034E2500420EB36EDE01034E15
:102440003500620E336EDE0183AE08006315DE01D7
:102450002388F18C99B783C80801E3E2E8F7139762
:1024600087016187468FA1BFE31B8EF415C5834E9C
:102470001500034E0500A20EB3EECE01034E25005B
:10248000420EB36EDE01034E3500620E336EDE0186
:1024900083AE0800E30EDEFB83C80801E3E1F8F336
:1024A0001393870113538341C68F11BF3A883A8330
:1024B000814F014F8147E1428543094421B7EFD263
:1024C0009FC998319C21368A22075D8FBC215441D7
:1024D000C2075D8FBC31E207D98F639BF60089E6A6
:1024E000D9573E856FD07FCA0545EFF04FC8CDBFA5
:1024F000E5DB2E842A89AA852285B289EF00D044A3
:1025000065F11C300420370500F0A207C58F242098
:10251000C204C58F2430E204DD8CEF00C07AE98C60
:10252000370500E0EF00207AE38CA4FAD2852285FB
:10253000EFF01FE1AA87E34605FAE147B307F5028A
:1025400003A581823E9589475CC5232A250193878F
:1025500059001307950094237D1714B39386F7FF52
:102560006396F900230805008147A5BFB687E5B744
:10257000B747002003A5872403A881820147E148CB
:1025800009430546130EF00E6363A7008280B3066D
:102590001703C2969C2ACC46850793F7F70F9CAA8F
:1025A00063986500636AFE0005071377F70FE9BFBC
:1025B000E39CC5FEE37AF6FE23A60600F5B721CD1F
:1025C000EFD21FBBC4412A84DC34C824A2075D8D2E
:1025D000EF00606BA1679387071093852401630464
:1025E000F5009385E400D835DC2522075D8FFC25B6
:1025F000C2075D8FFC35E207D98F5840B98F184468
:10260000F98F81EB814613866400B1052285EFF0D6
:102610001FEB6FD03FB8828063030516EFD2BFB3C4
:102620003A26930790024111B2892E8AAA8463E860
:10263000E7004E85EF10B02341016FD01FB503298D
:1026400046008347D9000345C90013042901A207A6
:102650005D8D152DA167938707106304F5001304A2
:10266000E900834A14001C200545A20AB3EAFA00D7
:10267000192DE390AAFC834A54005C2013054060A6
:10268000A20AB3EAFA000125E395AAFA834A3400C4
:102690003C200565A20A13050580B3EAFA00E5238C
:1026A000E399AAF8930AE4001146D6856800EF5032
:1026B0002018D44013068400ADC2183C1C2C2207FD
:1026C0005D8F3C2CC2075D8F3C3CE207D98F63963F
:1026D000F60485466C002685EFF07FDE054B7C30E6
:1026E0006820A2075D8D45238547630FF502894762
:1026F000E311F5F46C002685EF10E033B7470020B6
:1027000003A70718E30707F293870718DC47E3825C
:1027100007F26C002685829729BF81466C002685CA
:10272000EFF0FFD9014B65BFE3050BF00945A12B85
:1027300068A0218168B01146D68513058401EF5049
:10274000200F1146938544005685EF50600E3504E6
:1027500015099547FD5618207D197D1438B4A3003E
:10276000E9003307FA001823FD1718B0A303E900A6
:10277000E393D7FE9C4CCE85268582975DBD8280F3
:10278000EFD27F9D2A89AE8901469305A0020D45AF
:10279000EF10D0127D544DC94041AA840545E52172
:1027A00048A8218148B89306E902930754001547C9
:1027B00093858184138601847D5503C80600FD1727
:1027C000FD16A38B07013388E50003480800A380AA
:1027D00007033308E600034808007D17A3800701BC
:1027E00003C81600A3830701E319A7FC114693054C
:1027F00049001305C401EF50A003CE85114613050F
:102800006402EF50E0020545BD2968A48569218175
:1028100068B413850980852908A8218108B81305A3
:102820004060952128A8218128B813856980A129B5
:102830008327890148A4218148B4A6854A858297C7
:102840002A842685EF10B00222856FD01F94EFD224
:102850009F902E842A89AA852285B289EF00D00E06
:1028600001C559556FD07F921C300420370500F008
:10287000A207C58F2420C204C58F2430E204DD8C5A
:102880009921E98C370500E03D29E38CA4FC183040
:102890001C2022075D8F3C20C2075D8F3C30E20781
:1028A000D98FE1D385452285EFF09FA9E34C05FA46
:1028B000E147B304F50203A78182138A8182854729
:1028C0002697544799EA5CC7EFF0DFA6A2854A85B0
:1028D000EFF01FEBE38809F831A0E387F6FE7D55A2
:1028E000E38409FE83270A000947A697D447E39BA0
:1028F000E6F603A44900138797001306E90293063E
:1029000054008D070C237D17FD168CB20C227D160A
:10291000ECB2E319F7FE056513050580AD268327A4
:10292000890148A4218148B4CE854A8582971DBF7C
:10293000EFD27F82AE8441112A89B945268532843F
:10294000EF10006C631E0510CA852285EF00C07F62
:10295000631505101C3083490400370500F0A207F9
:10296000B3E7370183492400C209B3E7F90083497B
:102970003400E209B3E9F900B926B3F9A900370533
:1029800000E091261020143038203C30639CA908C8
:1029900013958600518D4207598DE20785456C8459
:1029A0005D8D9305E0054C85392E41811375F50742
:1029B000C88508301C2022055D8D3C20C207C98FC8
:1029C000283062055D8D01262181488608301C2053
:1029D00022055D8D3C20C207C98F283062055D8DC0
:1029E000DD24C8863400C04095477D561307540047
:1029F000B385F6008C217D170CB3B305F90083C5B0
:102A00009502FD176CB3E395C7FE056513050580B8
:102A10009D2C8327890148A4218148B4A6854A8535
:102A200082970DA8A206D18E4207558FE207D98F53
:102A300003274900B98F03278900F98F99C7832796
:102A4000C900715581CB1304C9002686A2854A8529
:102A5000EFF0FFDF41016FD04FF39386018461B740
:102A60007955CDBFEFD2CFF044412A842E89DC3492
:102A7000C824A2075D8D012CA167938707106317F7
:102A8000F5009C388828A2075D8DF52A93070580FC
:102A900091CB8567938767806302F5042285EF10E9
:102AA000005D15A8A2854A85EFF07FB1DC34C8240B
:102AB000A2075D8DC92AA16793870710B9456313E3
:102AC000F500C945B305B0402285EF10605379F594
:102AD000CA852285A92401456FD0CFEB22869305B4
:102AE00099024A85EFF05FB3FDB7EFD26FE8B747C1
:102AF0000020938787195CD193075006A309F5023C
:102B00009307E006230AF502B7370000938707937F
:102B10005CC9B73700009387E7B41CCDB7450020E8
:102B200099472A842304F502232E0500194693852C
:102B3000152913059502EF40B04F9307C05D1EB8ED
:102B4000930730032309F40201456FD0AFE4EFD2BD
:102B50002FE2B1642E8493841435EFF08FFA11893B
:102B600015CDFD1485CCEFE0BFD02A897DD5AA878D
:102B7000814401E8CA852685EFE09FCB01456FD0EF
:102B80006FE132244C403E85EF40904A3A240040A9
:102B9000BA94C204B307E500C180E1BF5155C5B77F
:102BA000EFD26FDBB747002083A70726AA891385DA
:102BB000418D9384418D82978C40A9C983C7918CA4
:102BC0001384418D93F7F70F81E78547A384F18C38
:102BD000C2050D46C1810D454440EF10204E2A89A3
:102BE00015C52A8432244840A685EF4070443E240F
:102BF0000040BE9465F8EFE09FC283A70901CE852F
:102C00004A85829701C54A85EF1060466FD0EFD79D
:102C1000EFD20FD641113744002002C202C402C6CF
:102C2000EF00907913058426B74500201946938557
:102C3000452013059502EF40B03FB747002003A79A
:102C4000871F9387871F130584263AC29847DC4362
:102C50003AC43EC623AA018E23A8018EEF10603924
:102C600037380000B7370000740030004C001308FC
:102C700048A69387A7AE014713058426EF10C031FD
:102C800041016FD02FD19317850021815D8D4205C1
:102C9000418182809317850021815D8D42054181AC
:102CA00082801357850193178501D98FB706FF00DE
:102CB00013178500758FD98F4167130707F021819E
:102CC000798D5D8D8280EFD2AFCAEFF09FFD6FD01E
:102CD0006FCCEFD2EFC903A4418FAA8401EC03A506
:102CE000018F11C5EF10403119C103A4018F228556
:102CF0006FD04FCA2285EF10203005C198309C203C
:102D000022075D8FBC20C2075D8FBC30E207D98FE0
:102D10005840B98F1844F98FF9DB0040C1B7EFD2A2
:102D2000AFC24041AA84AE891C300820A2075D8D45
:102D3000EFF05FF631814205418191476306F5006E
:102D40002685EF10C03231A41C300820A2075D8D0B
:102D5000EFF05FF419813C30137AC5032820A207F5
:102D60005D8DEFF03FF3BE242A89E3EB47FD9E24FF
:102D7000E3E8A7FCD2852285EF40B02371F1CA8534
:102D80002685EF10A047370500F0EFF0DFF3370599
:102D900000E0EFF05FF34E89054B930B04014A8589
:102DA000EF10802511E563130B12032909000DA212
:102DB00093074900EDDB83264900F5D618381C2817
:102DC00022075D8F3C28C2075D8F3C38E207D98F10
:102DD0006382F604CA855E85852E0DED1C38834A14
:102DE0000401370500F0A207B3E75701834A240125
:102DF000C20AB3E7FA00834A3401E20AB3EAFA00EE
:102E0000EFF07FECB3FAAA00370500E0EFF0BFEB7C
:102E1000E39BAAF858345C2422075D8F7C24C20708
:102E20005D8F7C34E207D98FB9C3CE851305C4000A
:102E3000212EE31705F05C34034AC400370500F087
:102E4000A207B3E74701034AE400420AB367FA0066
:102E5000034AF400620A336AFA00EFF0DFE6337ADD
:102E6000AA00370500E0EFF01FE6E30BAAECE30948
:102E700009EC03497400682022093369A90011652F
:102E80007D15EFF05FE03375A90011C52685ED26AD
:102E9000AA8461C14041CE852685EF10204A55E9BC
:102EA0001C340824A2075D8DEFF0DFDE1375F50FEB
:102EB00099476303F50AC5476309F5088547631217
:102EC000F50ACE852685EF40C04E61A003A9418F4B
:102ED0006314390103290900014BE31209EC1C3486
:102EE0000824A2075D8DEFF0FFDA1375F50FC547D3
:102EF000631EF500B3074401A823BC33A2075D8D10
:102F0000EFF05FD993074004630DF502854A1C3446
:102F10000824A2075D8DEFF0FFD71375F50FC547A5
:102F20006319F508229A83473A0003452A00A2074D
:102F30005D8DEFF03FD69307C076631CF5064E8992
:102F40003DB7E39809F2814AD9B7CE852685EF309F
:102F5000307701456FD0CFA2CE852685EF20901324
:102F6000CDBFCE8513050401C522E31B05DC1C384B
:102F700003490401370500F0A207B3E7270103491D
:102F800024014209B367F900034934016209336936
:102F9000F900EFF05FD33379A900370500E0EFF0D7
:102FA0009FD2E30FA9D8C0C089452685EF40606550
:102FB00041BBE3910AE669B3EFD20F99AA8942892E
:102FC000630F0612AE8AD1453A8AB284B68B3E8B25
:102FD000EF10000379576311051203A44900A20BF7
:102FE0001C340824A2075D8DEFF0DFCA1375F50FBE
:102FF00033657501EFF03FC91357850018B408A475
:10300000EFF05FC9218142054181220533656501E9
:1030100042054181EFF03FC798309C2008A4220769
:103020005D8FBC20218108B4C2075D8FBC30116563
:1030300013050550E207D98F13D787001CA818B8CD
:1030400013D70701E1833CB838A83365AA00EFF035
:103050009FC308A0218108B003D58900138AC18DC0
:10306000EFF07FC228A0218128B003550A00230376
:103070000400A3030400EFF01FC183570A0048A017
:103080002181850748B02310FA0063810A0203C733
:103090001A0083C70A0022075D8F83C72A00C20770
:1030A0005D8F83C73A00E207D98F99E7130749007C
:1030B000814719C38327490013D787005CA458B4FC
:1030C00013D70701E18378A47CB423050400A3058A
:1030D0000400D1452285EF40C06D28A4218128B489
:1030E0008357090385C303D7890063FDE70026865C
:1030F000CA854E8585232A873A856FD06F884441DB
:10310000C104F9BF832749012686CE854A85829767
:10311000DDB7EFD2EF8501112A8432852ECE36CC71
:103120003ACA3EC832C6EFF0DFBA09CDC2475247AD
:10313000E2463246F2452A882285EFF0FFE7056134
:103140006FD04F857155E5BF18311C2122075D8F67
:103150003C21C2075D8F3C31E207D98F9386F7FF90
:1031600075576366D70203C725030145098B0DC355
:10317000D841630FF70094453D8F758F11EB13C550
:10318000F6FFE98F3385A74013351500828005458A
:103190008280EFC27FFB03A4018EC544014B1389DB
:1031A000018E19E06FC0DFFDFD1493F4F40FFDD81C
:1031B0007C3C032C040091C7FD177CBC228B6284ED
:1031C000CDB783294400814A03A549005C315821C9
:1031D000A207D98F85EF18311C21514622075D8F38
:1031E0003C2193058400C2075D8F3C31E207D98FF3
:1031F0005CC0EF40E06385454E85EF40C0414E85A1
:10320000EF104005AA8A4E85EF00706683294400BE
:1032100063960902032709001C40631CE404232071
:10322000F900A2851545EF0070471387E18D1E2335
:103230005A84B38A57412310570149B703A749005D
:103240004E851C33034A0700A207B3E74701034A30
:103250002700420AB367FA00034A3700620A336A5A
:10326000FA00EF00307FAA9A4E85EF005060D289B5
:1032700045B72320FB0075B7EFC21FED44412A89F3
:103280009C308820A2075D8DEFF0DFA019811375B7
:10329000C503D1476312F526FC30E820A2075D8DF7
:1032A000EFF05F9FBC302A8BA820A2075D8DEFF066
:1032B0007F9E9C30AA8C8820A2075D8DEFF09F9D99
:1032C0002A8C4A85EF001079B747002083A7C724CE
:1032D00003D7E18D2A8D8D832A97FD8B9389E18D0C
:1032E00063ECE72003A4018E814A138A018E1DE856
:1032F0001545EF00B0382A846300052071468145EA
:1033000013054400EFC0DFE98D477CBC83270A002A
:1033100023208A001CC05146A68513058400EF4077
:10332000205195ACD834DC2422075D8FFC24C207E1
:103330005D8FFC34E207D98F58486316F70298383E
:103340009C2822075D8FBC28C2075D8FBC38E2072E
:10335000D98F184C6319F700DC30D4205A24A20707
:10336000D58F6306F720A28A004051B7CC4203C82C
:10337000550003C34500220833686800637C060DCE
:1033800093D5860094A38CB393D50601E182ACA3B8
:10339000B4B3630E072A74336C23A206CD8E636424
:1033A000D6146362A814935689002300270114B32E
:1033B000935609011359890134A3A3012701782CDD
:1033C000014B058B630F0718638D08185840444361
:1033D000D830D4202207558F6315071894339823CB
:1033E000A206D98EB8234207D98EB8336207558F0B
:1033F00061E75E2C03C904005146D1075EAC9C30E6
:10340000930584002685A207B3E7270103C924009A
:103410004209B367F90003C9340062093369F9004E
:10342000EF4000414A2CEFF01F86A8A02181A8B0F0
:1034300023830400A383040023850400A3850400E0
:10344000D1452685EF40E036A8A42181A8B4032BFE
:103450004400D5A063090609F43103C36500A20640
:10346000B3E666006361D60801CB74237833220784
:10347000558F6303E8008148983194212207558FC6
:10348000B421C206558FB431E206D98E2E8765AAC3
:10349000935689002300270114B393560901135949
:1034A000890134A3A3012701742378332207558FA0
:1034B000E307E6F0814821B75443EC23F833DC32CC
:1034C000D0222207A2074D8FD18F631AF7029C32B8
:1034D0009822A207D98FB8224207D98FB832620743
:1034E0005D8FB68731B74A85EF00D05683D7090084
:1034F0003385A7402390A9004A85EF005037014B40
:103500008DA0B1554A8583244900EF00702FCA85EC
:103510005A85EF00F0559C3003C90400A207B3E7B9
:10352000270103C924004209B367F90003C9340025
:1035300062093369F900E31609FC03270A001C40FD
:103540006314E4022320FA00A2851545EF0010154C
:103550005A85EF00305083D709003385A740239068
:10356000A9005A856FC0DFC123A0FA00F1BFFC306B
:10357000E820896BA2075D8DEFF0CFF1FD1B33755D
:1035800075014205418101E96A24EFF0AFF033751E
:103590007501E31205D883D709003E9D2390A90148
:1035A000FC30E820A2075D8DEFF0CFEE93172501E8
:1035B00063C2070213153B017C2C4D810E05135C81
:1035C0006C006695137CCC0393E7170033058541A7
:1035D0007CAC4AAC83244900BC30A820A2075D8D96
:1035E000EFF04FEB9C302A8B8820A2075D8DEFF027
:1035F0006FEAFC30AA8BE820A20793DB6B005D8D9D
:10360000EFF04FE94E054D81131635003305CB0021
:1036100013FBCB038327490033056541420513574C
:10362000860041815440D8B313578500F8B32380F6
:103630000700A380070023810700A3810700D0A310
:10364000E8A385480147E39306D2E31307E4232266
:103650002401B5B3EFC2DFAE032C4500011132CA1D
:1036600003477C00AA8D03456C00220783DB05031A
:10367000598DAE8CEFF00FE28966B377D500138ACF
:10368000CBFEA146334ADA0283D48D0009677D1749
:103690003EC63379E500B1144209C2041359090149
:1036A000C1800144514D3ACC420A135A0A01931683
:1036B0003A0093970601C1833EC89387DBFE3ECE56
:1036C00089E4014505616FC07FABE247A68A337B81
:1036D000F900B24733EB6701F24763C6F400C24A10
:1036E0008967336BFB000146D1450945EF00101D8A
:1036F000AA8939C948415146E285EF40601303A6C3
:103700004D0083AB49006A9623A2CD0003D6AD00DD
:10371000B306A6412395DD00568D63090D0403D43D
:10372000AD0063738D006A844204418001E483AD7F
:103730000D00E5B7814509460D45EF003018AA8513
:1037400011E54E85EF00B0127D55ADBF03A64D00CB
:1037500002A522A550C14E85EF009031B3068D40E1
:10376000139D0601135D0D01E3130DFC5A85EFF067
:103770008FD12383AB002181A383AB0013854A0142
:1037800042054181EFF02FD02381AB002181A3813D
:10379000AB00D14523850B00A3850B005E85EF4070
:1037A000400103A74C0152462385AB002181A3852C
:1037B000AB00CE8566850297B384544152994E85FD
:1037C000C2044209EF00B00AC18013590901228DD9
:1037D000C5BD3C296385B7002CA9A30905008280DB
:1037E0005E2D184DB306F7002388B60E938627008A
:1037F0008507C207C18356ADBA972388C70E82805A
:103800005A2D1C4D9306170056ADBA972388B70E54
:1038100082805E2D184D13D68501B306F7002388EC
:10382000C60E93861700C206C182BA9613D605014A
:103830002388C60E93862700C206C182BA9613D685
:1038400085002388C60E938647008D07C207C18373
:1038500056ADBA972388B70E828015C15E2D184DDC
:10386000130630049386170056ADBA97FD56238889
:10387000D70E5E2D6376F60093F6370091E28280D4
:103880009386170056ADBA972388070EDDB76302FB
:103890000518EFC2FF8D0451DD57638904162A898C
:1038A0000146930540130145EF005001C8C82A871F
:1038B000FD57630D0514BC3899EFBC280546638C91
:1038C000C700F11793F7F70F6377F60083A74182DC
:1038D000850723A2F182404303A54182854780CC1E
:1038E00088C01CA01CB099473CA0A3010400EFF0C5
:1038F0004FBB9357850048A05CB093570501618189
:103900007CA068B0804C294723040400A304040071
:1039100023050400A305040023060400A3060400F5
:1039200023070400A3070400BC286388E700F117FD
:1039300093F7F70F0547636EF700834749005CA4D0
:10394000834759005CB4834769007CA483477900AE
:103950007CB423080400A308040023090400A3097D
:103960000400230A0400A30A0400230B0400A30B91
:103970000400230C0400A30C0400230D0400A30D79
:10398000040083458902814741461397070141831B
:1039900081466376B7003307F90083469702330701
:1039A000F40054AF8507E392C7FE1307C4029307E0
:1039B000C406230007000507E39DE7FE1307C40EB6
:1039C000238007008507E39DE7FE375582631305D3
:1039D0003536EFF00FAD935785002306A40EA306EE
:1039E000F40E904C9357050161812307F40EA30751
:1039F000A40E239E0400814713074004B306F6007B
:103A00002388F60E8507E39BE7FE81473E856FC05E
:103A10006FF8D9573E85828011CDEFC26FF5005106
:103A200001C8484811C1A125232A0400232C040001
:103A30006FC04FF6828063000518EFC26FF300512C
:103A4000630904163828A1476315F71698319C219D
:103A500022075D8FBC21C2075D8FBC31E207D98F81
:103A600018546398E714AA84B1452285EFF07FD6F5
:103A70002685EFF0DFE16319051205469305500333
:103A80002285EFF0FFD591452285EFF07FD71146D3
:103A9000930520032285EFF0BFD40854EFF0AFA2C6
:103AA000AA852285EFF0FFD6114693056003228593
:103AB000EFF01FD34850EFF00FA1AA852285EFF059
:103AC0005FD51D469305D0032285EFF07FD15E2C94
:103AD000184C05462285B306F7002388C60E1386C8
:103AE00027004206418252AC9386170083C5940298
:103AF000C206C182BA962388B60E93863700C206E4
:103B0000C18256AC83C5A4023A96BA962308B60E73
:103B1000138647004206418252AC83C5B4023A96EE
:103B20002388B60E93865700C206C18256AC83C561
:103B3000C402BA962308B60E138667004206418275
:103B400052AC83C5D4029D0732972388B60E5EAC73
:103B500083C7E4022308F70EEFF03FD04E2C48480D
:103B60009385050FC205C181512D034784021C4C6A
:103B70004C484840D8A70347940203A94400D8B74B
:103B80000347A4029306300413864185F8A7034730
:103B9000B402F8B723A204002687EF30805F2685A1
:103BA00023A22401EFF05FE73C3885073CB8854746
:103BB0007EAC6FC02FDE8280EFC28FDB1128BD2468
:103BC000B747002083A7071E91C382976FC08FDC81
:103BD000373700201307F7E7719B23A4E18EB7471F
:103BE000002083A74724231107008D07F19B93969C
:103BF0000701C182BA9716A32302070023A6F18EFC
:103C00000546D0A396A3B6A323A2E18E828049C124
:103C100083A7818E636EF50683A5C18E637AB50690
:103C200083A6418E130685FF230E05FE1387418E62
:103C30006373D60010C3835685FFBE966304D60215
:103C400003C8460063100802638ED5000C436393DB
:103C5000B60010C38E22231CB5FE9622B305F64093
:103C6000BE96AEA28355A5FFB386B7006302D60207
:103C700003C84600631E08000328070063130601FB
:103C800014C3035785FF9AA2035785FFBA97AEA3C3
:103C900082808D05C205C181F199C205C18131477C
:103CA000AE8763F3E500B14737470020032647247A
:103CB000C207C1830D06719A6360F60A03A7818E5D
:103CC000636DE50883A6C18E6379D508930685FFE9
:103CD000835885FF998EC206C182938588FF958D92
:103CE000C205C18163EAF5066389F506330317014E
:103CF0000348430063140802938586001388418EAD
:103D0000AE97032E0800C207C18383580300B30592
:103D1000F70063166E022320B80015A01388470130
:103D200063ED050393858600AE971388418EC20725
:103D300003230800C183B305F700E3EE65FC23907D
:103D40001501B6A123820500231CF5FE962163060A
:103D5000D60036973EA382800145828039C513077D
:103D6000350042074183719B42074183B146BA87C0
:103D70006373D700B1473747002003264724C207A3
:103D8000C1830D06719A01456362F60203A7418E55
:103D900083AE818E9385418E3303F640B306D741BF
:103DA000C206C182615E63E466000145828033859C
:103DB000DE000348450083580500631708063308F2
:103DC000DE4046986362F806138347016362680425
:103DD000A107B697C207C1833388FE0023101801DC
:103DE0002311D8002302080085461EA154A1835642
:103DF00008006304D600F696BEA26319A70083A646
:103E0000C18E8147502301EE91C398C12105828064
:103E100085475CA1DDB71A2385477697E5B7E39C14
:103E2000E6FEEDD794C1DDB7C686B5BF83A5C182D6
:103E300083A60183B73700209387774F3747002049
:103E4000F19B1307072A1385060103D805002320D9
:103E5000070001466318C800890611078905E39623
:103E6000A6FE8280832807000506420623A01701CC
:103E700083D806001CC34182C697E9BF9D4763ED06
:103E8000A700B74700200A059387072AAA97884307
:103E900009C5184198C382800145828099C993174A
:103EA0002500374500201305052A3E951C419CC17D
:103EB0000CC18280EFC22FAA98319C21AA842207CC
:103EC0005D8FBC212E84C2075D8FBC31E207D98F84
:103ED0005841639FE70018301C2022075D8F3C206B
:103EE000C2075D8F3C30E207D98FDCC06FC0EFA9FD
:103EF00003A5019001499309400605C11841DC4022
:103F0000032AC5006311F7048545EF00904D930720
:103F1000190093F7F70F63F7290383A78190C5DF93
:103F2000984319CFD440631DD70014301820A2063F
:103F3000D98E38204207D98E38306207558F98C302
:103F4000DC47F1BF3E8952854DBFEFC26FA24111E0
:103F500032C636C42A84EFF0FFF53246A2468147C6
:103F600019CA18321C2222075D8F3C22C2075D8FBE
:103F70003C32E207D98F1CC4814799CA98329C22EF
:103F800022075D8FBC22C2075D8FBC32E207D98F4A
:103F90005CC441016FC00FA0EFC28F9D58CD138745
:103FA000818F834807004111232205002324050047
:103FB0002326050023090502232005021383180088
:103FC000A30A1503232805012A843EC6230067009F
:103FD000EFF0BFF7B2472285829711E99387418FAF
:103FE000984318C080C3228541016FC0AF9A014435
:103FF000DDBF23A8A18E8280034525030589828029
:10400000AA870145A5C5BDC3139605014182328823
:1040100063DB05003308C040BA2742081358080183
:10402000054563650705D427D84381C60D456391CF
:10403000A6020D8F9386070105456369D702D8C391
:10404000BA2701453297BAA79A273A9692A7828053
:10405000FD16C206C1828548054563E9D80063D7CD
:104060000500B62763E406010D8FD1BF8280EFC241
:104070008F8E01440DCDAA8501440D498549FE2549
:10408000FD17C207C183FEA59DE3DC2584411D45C4
:1040900063882701FD17C207C18363EDF900194545
:1040A000EFF0DFDF05041374F40FA685E9F822852D
:1040B0006FC0AF8D2E85EFF09FB5EDB7EFC2AF8922
:1040C0008547630DF50031C589476306F5048D47C3
:1040D0006305F504014422856FC02F8B8144D10410
:1040E000B904C204C1808947B2892E8963E9C70235
:1040F00079CA1945EFF09FD82A8469DD232205008B
:10410000231425012315250123200500230635014D
:10411000B5A0D144E9B78144E1B78144E9B78D47FF
:104120000144E31AF6FA1D45EFF05FD52A845DD10C
:10413000B3079500CD07F19B374700205CC193077B
:10414000C723DC438D04F19893879703F19B2306E3
:1041500035012320050023142501B38497409309DA
:10416000C72363739900CA84854726A47EA4B30439
:1041700099400D4A2289854A6347900085477EA46D
:10418000A306040089BF1D45EFF05FCF09E5228536
:10419000EFF0FFED81B783A74900231645012320E7
:1041A00005002320A9009387970306A5F19B63F3DD
:1041B000F400A687130705013EA558C12317550132
:1041C0009D8C2A8955BF9387350013853401F19B57
:1041D00071993E9542054181EFF05FB82A84E30B67
:1041E00005EEAA94CD04F19844C1231425012315AA
:1041F0002501232005002306050049B71E2563FA83
:10420000F504EFB2FFF62A84AE84B387F5402E247E
:1042100063E995025C2481EF638B95004C40228515
:10422000818DA695C205C181EFF0BFA62A84084002
:1042300026A406A419C1EFF09FE3232004006FB069
:104240007FF51A248D8CC2043E971AA4C1800040C9
:104250007DBF8280814719E13E858280850793F783
:10426000F70F0841CDBF01C57E2585077EA5828059
:1042700009CD99E182803A859E2516251841B69789
:10428000C207C1831EA565FB0CC18280EFB25FEE41
:104290002E84EFF0FFFD2285EFF0FFFC6FB09FEF63
:1042A0003DCDEFB25FEB2A84AE845955ADC51A24DB
:1042B0009E256362F7060149014A8359A400BE2482
:1042C000B3894941B387274163C9F9049399070129
:1042D0004840CC4093D909015295CA954E86EF309B
:1042E00020554E9A3E24420A4E994209135A0A0119
:1042F00013590901639447010040014ABE246365D4
:10430000F900844099CC0149BA249E246316F7022F
:104310009C409DC35D556FB05FE7C20955BF5955BD
:10432000828009C801493A241E246314F7001C4006
:10433000F5F3C1F40145C5B77DF441B7EFB2BFE174
:1043400003294500AA898347990003458900014A4A
:10435000A2075D8DEFE01F94937AF50F03A4C18F40
:1043600031099384C18F01E401456FB01FE21C281D
:104370000145639457035C488DC3084CCA864E863A
:10438000A285829719C963080A005C442326FA00B3
:104390009C4080C05CC4054581495C44228A71F51B
:1043A0003E84D1B7814799C998319C2122075D8FFE
:1043B000BC21C2075D8FBC31E207D98F1CC101450A
:1043C0008280814799C998319C2122075D8FBC2149
:1043D000C2075D8FBC31E207D98F5CC10145828085
:1043E0004CC910CD8280EFB2BFD8AA840145EFF04E
:1043F000FFA82A8411CD71468145EFB07FDA93077B
:1044000000F83CB49387C18F984304A880C358C474
:1044100022856FB03FD883A6019003A6819183A522
:10442000819003D58183938781831307150013152A
:10443000070113180701418163530800056536879A
:1044400019E7328719EB2E8719EF8AA38280035868
:10445000C701E30CA8FC5847E5B70358C701E306BA
:10446000A8FC5847C5B70358C701E300A8FC584744
:10447000E1BF1C4963960710EFB2FFCD4111AA843A
:10448000328411E62EC6EFF01FF9B2452A8403A745
:10449000819031E703A7019025EB83A9419013890F
:1044A00041904E8759E783A78191CDEB85C1983123
:1044B0009C2122075D8FBC21C2075D8FBC31E207C2
:1044C000D98F89C711462685EF308036C2AC23A626
:1044D000340123209900014541016FB01FCB5E2FAD
:1044E00063928702104359CED1CD94319C21A2060C
:1044F000DD8EBC21C207DD8EBC31E207D58FD9C36A
:104500006302F608584771B75E2F63928702104323
:1045100035CAADC994319C21A206DD8EBC21C207EB
:10452000DD8EBC31E207D58FB1CF630DF60458475D
:10453000A5B75E2F63928702104329C6A1C59431A7
:104540009C21A206DD8EBC21C207DD8EBC31E207B4
:10455000D58F8DCB6308F6025847A9B7DA2F631FB2
:10456000870094319821A206D98EB8214207D98EAE
:10457000B8316207558F94436386E600DC4735B750
:104580004D558280555589BFAA870358C5021459D5
:10459000D23B0C5583D807043305D84005822E95AD
:1045A000328763F3C8004687420741833307E540FB
:1045B000634507002397070382803387D5406356FE
:1045C000E00023970702014582808D8EF6B7E5BF94
:1045D000EFB21FBA5E352A84BE95C2055E39C1812D
:1045E0004EB563F3B7005EB52285EFF0FFF95E3894
:1045F0008983634BF50083476402228593E7270094
:104600002303F402EF2080206FB0DFB8EFB25FB673
:104610004111014409CDAA854841014411C52EC666
:10462000EFF0FFA4B2452A841145EFF03F872285C1
:1046300041016FB03FB6EFB2BFB3014401E522853F
:104640006FB05FB50441EFF07FFC2A941374F40F50
:104650002685EDB7EFB2DFB141112AC61145EFF063
:10466000FF812A8401C9B2455146EF30601C4840A1
:10467000EFF07FBF228541016FB0DFB10CCD8280AA
:10468000232EB50882801C4905476374F704294727
:104690006381E704EFB2DFAD2A840325850809C5ED
:1046A000EFF0FF9C2324040803254408FD577EBC3B
:1046B000EFF07FF8685C23220408EFF0DFF70325B2
:1046C0000408EFF05FF7232E0406232004086FB0E0
:1046D0007FAC8280EFB2DFA6B74400209387841FAF
:1046E0001387C19003CC87011C43A56A850703ADDE
:1046F00001901CC313096006014A9384841F13842C
:10470000C190938901908D4C938A8ADA138B8185AD
:10471000631A0D0003A48191938481916319042489
:104720006FB0DFA57D191379F90FE30B09FE03467E
:104730002D0583260D01854D6302CC02834D0D0BA3
:1047400063840D100327CD0AB306BB0183C6F6FFB1
:1047500005072326ED0A637CD70C814D03270D0145
:104760009946631DD70003268D031440918E904C0B
:104770006376D60093871D0093FDF70F83568D0057
:10478000814BA18A95CE91466305D7009D4663195A
:10479000D70283284D0A83268D0A03250D0ACC4CA7
:1047A000B386D802104003278D03198EAA96B3D67C
:1047B000B60263FCC61093871D0093FDF70F854B6F
:1047C00003254D0805C103278D0314401946998E12
:1047D00003170D053307C70263E6E600EFF0BFE5F8
:1047E00023220D0803270D016314971183268D03DF
:1047F0001840158F944C63E8E61063960D108347BC
:10480000CD030347DD03850793F7F70F230EFD0262
:1048100063EBE70083278D09230E0D0263920714D3
:104820006A85EF10B07E6A8A032DCD00D5B52326A8
:104830000D0A19476366B70193871D002308FD0A17
:104840006A85EF20C05A11BF0317ED0363450700C7
:104850000507231FED0203270D08E30007F083156A
:10486000ED0303170D05E35AB7EE63F4DC020317FB
:10487000CD048316ED04B1470D8736979376F60F76
:1048800063F3C700B146D69694223317D700231896
:10489000ED048356AD0503574D06231F0D0263F348
:1048A000E60036874207418383560D040583231EA5
:1048B000ED046376D70013971600231EED04231D25
:1048C000DD046A85EF20803B51BD03471D0B814B02
:1048D000330717032A973357B702E373C7EE6A8586
:1048E000EF20004B03471D0B0507A308ED0AC9BDC8
:1048F000A546E314D7F003278D031440998E984CF6
:104900000607E37CD7EE6A85EFD07F8E6A85EFF0ED
:104910009FD78327CD0063020A042326FA0083274A
:10492000CD0989C703258D01ED558297638F0B0053
:1049300083574D020357CD0183258D0203250D06B4
:1049400093064D006A86EF20E022832BCD00EA8596
:104950000945EFF0AFD45E8D65BB23A0F900C1B768
:1049600003258D01EA858297E30C05EA6DBD22855A
:10497000EFD0FF872285EFF01FD10329C400A28565
:10498000094523A024014A84EFF04FD141BBEFB287
:104990002FFE1C412E846390B704DC451CC12326E6
:1049A00004002285EFF03FCE1C4829476381E702CF
:1049B0000547638EE7008347640213F7170001CBB6
:1049C00093E727002303F4022285EF1030642328A5
:1049D00004006FB02FFC23AAF19081461387419108
:1049E00089E7D5DE232007005DBFD0476317860027
:1049F00091C21CC35844D8C75DB78546B287CDB7AE
:104A00001C491D476365F70AEFB28FF625678A07D1
:104A1000130787D8BA979C432A848287EFD02FFD4B
:104A2000138741901C43639987005C441CC3232671
:104A30000400A28509453DA823AAF1908146138769
:104A4000419189E7EDD623200700D5B7D0476317FA
:104A5000860091C21CC35844D8C7D1BF8546B287CF
:104A6000CDB7EFD0CFF8A28513858190EFF03FF25C
:104A7000A2850D45EFF08FC2014531A8EFD02FF789
:104A8000A28513850190EFF09FF065B78545EF1083
:104A9000904F954701C96FB0EFEF8545EF10B04ECD
:104AA0007DF9A5471CC82285EF105056F1B7014586
:104AB0008280EFB2EFEB41112E8511CE0E2632C669
:104AC000EFF01FB132463285EFF06FDA81473E8555
:104AD00041016FB02FEC8147FDFAEFF07FF2AA871A
:104AE000FDB7EFB2EFE803A401909304500619E07C
:104AF0006FB04FEA0326840819CA83270409814648
:104B0000A2858DCF084C829719E123240408FD1457
:104B100093F4F40FF1DC8347640213F7170009CF15
:104B200093E727002303F4022285EF10304E8347DA
:104B30006402F19B2303F402404455BF0145EFF0AA
:104B40005FF7D9B7EFB2CFE2EFF0BFF9138701916A
:104B50001C23850793F7F70F1CA3858B99C3EFF0F0
:104B60007FB76FB02FE3EFB2AFE003A401909304DF
:104B70005006014901E44A856FB0CFE1032684085D
:104B800019CA832704098146A285B1C7084C8297B8
:104B900019E123240408FD1493F4F40FE9DC83479E
:104BA000740285CB03476402937617009DC2FD17FC
:104BB00093F7F70FA303F4029DE313672700230382
:104BC000E4022285EF10904483476402F19B2303A3
:104BD000F402404445B70145EFF0BFED55BF05096C
:104BE000CDBFEFB26FD61849A94741112A84631E81
:104BF000F700AA8513858191EFF07FD9A285094539
:104C0000EFF0CFA941016FB0AFD71C412E8B032924
:104C100005063EC65C4183298502035AC5013EC490
:104C2000835A45028324C509832B8501EFD02FDCED
:104C300013850190A285EFF09FD50325040819C1C3
:104C4000EFF07F9F685C19C1EFF0FF9E03254408D9
:104C500019C1EFF05F9EA2850945EFF02FA481C432
:104C6000ED555E858294E30F0BF8D68752873400AA
:104C70007000CE854A85EF10F06F69B79387418346
:104C8000884303A7C1903A9588C38280EFB2AFCC26
:104C90002A890945EFF08F9EB74400209384C423EE
:104CA0002A8425E19C488983858B89E701442285F4
:104CB0006FB0AFCD83A7819103A6C1900145814616
:104CC0009389C190F1E701C58545EFF09FF1094552
:104CD000EFF0CF9A2A8415E583A7019003A5090078
:104CE0007D191379F90F1306F0078145DDEB09C42F
:104CF00085452285EFF0FFEE0945EFF02F982A84D5
:104D000055D51306400B81452285EFB06FC9930737
:104D100000045CA89C44231C040613078021231B69
:104D2000F4065E385EB47EB4E1773EA4DC40637482
:104D3000F700930780212310F404C1677D577CC4DA
:104D400085472318F4047ABC231DF404EFF01FF305
:104D500083A7C19068D428D01CDCB7570000938784
:104D600027AB2328F408B747002003A7C71E938763
:104D7000C71E68C82320E40AD8439C4728D8230EBE
:104D800004022322E40A2324F40AA308040A05B730
:104D9000985F3307E6406364D700BA863E85DC47F8
:104DA00015B7D42B636CD900636AD600985F3307BC
:104DB000E5406365B7003686BA853E84DC473DB77B
:104DC000EFB20FBB13050004EFF05FEC6FB08FBCC8
:104DD000EFB20FBA2A842E85EFD0BFEF11CD1E3966
:104DE00081CF938787FD3E87C207C1836373F40039
:104DF000228713140701418022856FB0AFB9EFB24B
:104E00002FB703A481919384819119E06FB08FB87B
:104E10002285EFD0CFBD2285EFF0FF860329C400A5
:104E2000A285094523A024014A84EFF02F87F1BF12
:104E3000EFB26FB21C49AA842E8AC827DC37A207BA
:104E40005D8DEFD03FE5058929E94169130909FC2A
:104E500003270A0103A60193DE2454334C23B2979F
:104E6000A206D58D7423C206CD8E6C33E205D58D96
:104E70008356CA00AE96B386D74063D506028D8F9F
:104E80006359F000918DC205C840C181CEA4EFF0F6
:104E9000EFB623A044016FB04FAF5285EFF0AFF9EA
:104EA000014AC5BF5C374827A2075D8DEFD09FDE62
:104EB000058915CD9C48C037C8272204498C4A85EE
:104EC000EFD07FDC9C48698CC827DC37A2075D8D5A
:104ED000EFD05FDC1375E50313651500EFD0BFDA83
:104EE0009C48418D42054181C8A72181C8B7032450
:104EF0000A005285EFF08FF145D4228A91BFEFB2BC
:104F0000AFA483C701922A84C18B13890193F1C78F
:104F10008325090038558356450670553305B7403B
:104F200083A7C1919384C191634405026316B700BE
:104F30003307F640634E0700631EF60203A5819314
:104F400078350348E50022073367070163F4E6027A
:104F500003A5819378350348E5002CD422073367F5
:104F600007012312E4067CD411C70347040B19C3BD
:104F70002308040A6C483387B7406342E02A03D70A
:104F8000C193231A0406631907280357440668547B
:104F9000B2962A976312D7280317E403634E0726B5
:104FA000639CF526834784050D47850793F7F70F24
:104FB000230CF404637CF7240357A40583570404EB
:104FC000BA97C207C1836374F700231DF4047C5CA5
:104FD000639F07367040631A064003D6C193832748
:104FE00009001454138AC1936306067EB385F64004
:104FF0001387F5FF634B074605471D8F118F3697C3
:105000006345E046B74900209387092CC4431397B2
:1050100005014183BE249389092C63D3B7449E24A0
:10502000998FC207C183BA246346B742B305B04023
:10503000C205C1852685EFE0BFFCDC4083D6C900F0
:105040000327090023A4F9001C5436971D8F2396CB
:10505000E90003A7090193D687002320F9005CA388
:1050600054B393D60701E18374A37CB3832609006C
:105070001854B387E64063CB077452349387160005
:10508000998F918F6344F0746390E65CB74400207D
:105090009387042C83D9C7009C4B9384042CC82786
:1050A000DC37A2075D8DEFD0FFBE0D893335A00040
:1050B0004E9542055E3441812310AA0063FDA70886
:1050C0009C48C827DC37A2075D8DEFD0BFBC05899F
:1050D00031C19C4883C9D700C827A209B3E9A900F8
:1050E0004165130505FCEFD01FBA9C48B3F9A90030
:1050F000C827DC37A2075D8DEFD0DFB91375E50354
:10510000EFD07FB89C4833E5A90042054181C8A78C
:105110002181C8B75E34DEA49C48C827DC37A207CB
:105120005D8DEFD03FB7098901C5DE24FD17DEA4F0
:10513000CE24C840EFF08F8C9C4883D9C400C82788
:10514000DC37A2075D8DEFD0FFB40D893335A000A9
:10515000AA9923103A0183274408638D07329C489B
:10516000C827DC37A2075D8DEFD0DFB20589631059
:105170000532832A4408416B130B0BFC03250900FD
:1051800003570A002A9763800A0803A60A014C32D3
:105190005422A205D58D7422C206D58D7432E20642
:1051A000CD8E83D5CA00B695B305B74063D9053215
:1051B000158F635AE00483274408984B5C335423CB
:1051C000A207D58F898FDEA49C48C827DC37A207A9
:1051D0005D8DEFD03FAC098901C5DE24FD17DEA44B
:1051E000CE24C840EFF08F819C4883D9C400C827E3
:1051F000DC37A2075D8DEFD0FFA90D893335A00004
:10520000AA9923103A012322540969A4E391E7DC07
:105210002285EF10D03165BB230C04044DBB345004
:10522000B386D7406342D0128346640213F6460029
:1052300001CAED9A2303D4028356C405231DD40466
:105240008316C4040356E40442078D86B2962318DD
:10525000D404835664074183231AE4063697231B3C
:10526000E40618487CC823090404230C04048D4771
:1052700063F1E7020357A4058356C405835704046A
:105280006376D702BA97C207C1836374F700231D00
:10529000F4048327040885E383270408230E04020B
:1052A00093B71700B307F0407EBC15B3B387F7027E
:1052B000B3C7E702C1BF984B48335C2322055D8D1D
:1052C0007C23C207C98F683362055D8DEFD0BF9F15
:1052D00083270408AA8903DAC7009C4BC827DC3758
:1052E000A2075D8DEFD01F9B9C400D893335A00038
:1052F0005295B389F9404E95E340A0FA83290408FA
:1053000083A709002320F4088357440785C383A794
:105310000901C827DC37A2075D8DEFD0BF9705894B
:1053200011C583574407FD17231AF40603A5490046
:10533000EFE05FF2835784073385A740231CA40660
:105340004E85EFF0AFACB1B7231A040649B1984BC4
:1053500083A9040048335C2322055D8D7C23C207AA
:10536000C98F683362055D8DEFD0FF957C5CAA8A9A
:10537000B389594103DAC7009C4BC827DC37A20721
:105380005D8DEFD03F910D893335A0005295B389E3
:10539000A940E3C109C49C403850998FE34CF0C246
:1053A0008329C40783A709007CDC8357440785C38E
:1053B00083A70901C827DC37A2075D8DEFD09F8D39
:1053C000058911C583574407FD17231AF40603A561
:1053D0004900EFE03FE8835784073385A740231C4B
:1053E000A4064E85EFF08FA2DDB63C449840998F1D
:1053F000E3D507BE8316C40403D7C190420693D5F4
:1054000036404182C205C181B307C7408D8FC207B4
:10541000C18313950701B697C207C187418523163B
:10542000F40463570500198E2E9613150601418565
:105430008316E4048D872322040413D72640338780
:10544000E6402A9742074183BA972317E4042318BA
:10545000F40461B69EA423950400998D8440E1B6BE
:105460003307E04093150701E9B6958FE3D007C0F5
:1054700083476402228593E727002303F402EF1099
:10548000E038EDB61C412322F408EFF02F980325F5
:1054900044086DF983560A005E340327090022850B
:1054A000958F369718D45EB4EFF00F8EDC409A27B4
:1054B00009C723A4F19223A204009C48C827DC3723
:1054C000A2075D8DEFD00FFD058919C59387C192A5
:1054D00098231367070298A3914A1D4B39AA5C369B
:1054E0004826A2075D8DEFD0EFFA058935C59C48A7
:1054F000C827DC37A2075D8DEFD0CFF9098929EDE8
:105500009C4883C9D700C827A209B3E9A9005A85D6
:10551000EFD06FF79C48B3F9A900C827DC37A20782
:105520005D8DEFD02FF71375E50313651500EFD0F0
:105530008FF533E5A9009C4842054181135785004A
:10554000C8A7D8B783D9C400EFD0CFF40D893335BD
:10555000A000AA9923103A0183A90A005685EFF00A
:10556000EF8ACE8A21B92320F9005C37482783DBF4
:10557000C400A2075D8DEFD0EFF11C540D893335C7
:10558000A0005E953E959C4808D483DBC400C827E4
:10559000DC37A2075D8DEFD0EFEF5E340D89333538
:1055A000A0005E953385A7404AB42285EFE0DFFD79
:1055B000CC409E2589CB93878192884335CDEFE0FF
:1055C0003FCB23A204009C48C827DC37A2075D8D8F
:1055D000EFD04FEC058901CD1387C1921C2393E7CF
:1055E00007021CA31C4863945701232864019C40B4
:1055F00026852322F408EFF06F818324440899CC98
:10560000984854335C23A206DD8E7C23C207DD8ECE
:105610007C33E207D58F1454E387D7F483476402C1
:1056200013F7170001CFF99B93E727002303F40238
:105630002285EF10A01D39A08CC361B793E7170036
:105640002303F4026FA0DFB32285EF10201583241B
:10565000440891E8374500201305052CEFE09FFF33
:105660002322A408C5B70327090081491308F7FFBF
:1056700013051700904854325C22A206DD8E7C226E
:10568000C207DD8E7C32E207D58F639CE702374587
:1056900000209307052CDA27DE24E3F5E7FA13054B
:1056A000052CEFE03FFB59DD638A090023A0A90028
:1056B000A685EFF0EFF779B7B6846DBF2322A40873
:1056C000C5BF63900902B306F74063DE060837459D
:1056D00000201305052CEFE0FFF72DD52322A408A9
:1056E000C1BF83A8090183C5580083C64800A2052D
:1056F000D58D83C66800C206D58D83C67800E206C4
:10570000CD8EB306D84063C00606B306F540634CA1
:10571000D004374500201305052CEFE0BFF32A84A1
:1057200015D103A709015C334C23A207DD8D7C232F
:10573000C207CD8F6C3303D7C900E205CD8F832517
:1057400009003E970D8F635BE0009D8DC20503A5A8
:105750004900C1812396B900EFE05FAA23A0890028
:10576000A6852285B9B79440A689B9F6B307F74054
:10577000E35AF0EC5C364826A2075D8DEFD08FD15E
:105780000589E31105EC374500201305052CEFE0F2
:105790007FEC88C0E30805EA98485C334C23A207F5
:1057A000DD8D7C23C207CD8F6C33DA24E205CD8FEB
:1057B000832509003E970D8FE356E0E89D8DC205D5
:1057C000C840C181CEA4EFE07FA3ADBD2285EF002C
:1057D000F07C8DBD3387D740634807005A34850776
:1057E000958F998FE350F0E68347640235BDEFA2B1
:1057F0003F989384819303A904002A848347D900A6
:105800000345C900A2075D8DEFD0CFC831814205A5
:105810004181954763FCA7029C405109C827DC37AA
:10582000A2075D8DEFD00FC7B747002003A607245E
:1058300031816D150A054205931506014181C1812B
:10584000814705488948114363E4A7006FA09F94EE
:10585000B306F9009822630907016DDB630A17019B
:1058600098326DD7BA9711A08507C207C183E9BFE7
:105870009832E31D67FC13873700E359A7FCB82271
:10588000B4322207558F6363E60011E32E871AA016
:105890009107E1BFEFA2DF8A4041AA8B1C300820AC
:1058A0004111A207138941925D8DAE8923208900A1
:1058B000EFD04FBE8327090019811375C5032A94C1
:1058C00088239C3323AC8192A2075D8DEFD08FBCDF
:1058D0009355650093F5C503B305B0405E85EFE0D1
:1058E0002FF211E503D78B00CD4763E8E7005E8513
:1058F000EFE0EFF741016FA07F88138B4192032502
:105900000B00CE854105EFD03F8475F103270B00D6
:10591000370500F01C3B002BA207C18F202B42044F
:10592000C18F203B62045D8CEFD0EFB9698C3705E5
:1059300000E0EFD04FB9E30CA4FA83250B0003D7A6
:105940008B009946138605015E85B105EF10D05591
:1059500059FD938481939C40C827DC37A2075D8D55
:10596000EFD04FB33181F155B305B5025E85C20565
:10597000C185EFE0EFE825FD80401C300820A2073C
:105980005D8DEFD02FB108A0218108B080403C3060
:105990002820A2075D8DEFD0EFAF28A0218128B08D
:1059A000804048305C2022055D8D7C20C207C98F75
:1059B000683062055D8DEFD00FB1935785005CB004
:1059C000935705017CA09357850148A07CB0804087
:1059D00023A8A192938A019308341C2422055D8D8B
:1059E0003C24C207C98F283462055D8DEFD0AFAD6E
:1059F000935785001CB4935705013CA49357850128
:105A000008A43CB4804023AEA1901389C1917C349A
:105A10006824A2075D8DEFD0EFA79C4068A4218188
:105A200068B4C827DC37A2075D8DEFD0AFA6137826
:105A3000F50F83D88B0093753800B335B000C69549
:105A400003A30190C205944003260B009377F8034B
:105A5000C1812380F192239EB1921A840145938CD7
:105A60000192138CC19301E403A58191E9A29C32B8
:105A700003CE06005A30A207B3E7C7016312F70E40
:105A8000BC3203CE26005A2CA207B3E7C701631924
:105A9000F70C58365C2622075D8F7C26C2075D8F87
:105AA0007C36E207D98F5840631CF70A183A1C2A43
:105AB00022075D8F3C2AC2075D8F3C3AE207D98FEF
:105AC0001840631FF70819C55C4423A081905CC58A
:105AD0002326640003A74B00B74D0020032684084B
